:1000000000308A0019280000233084008313000880
:10001000031918280130F800F701F70B0D28F80B29
:100020000C284A30F700F70B13281628800B0A28F3
:10003000080003081F39830007309F0083138316CD
:100040008510831285108316861183128615051973
:100050005228831685108312851483168611831205
:100060008611A10121080E3C031C47282830A2005C
:10007000FA30A3000420A20B3828831685108312BF
:1000800085148316861183128611A10A32288316DD
:1000900085108312851083168611831286156430AD
:0800A000A300042027286300DF
:02400E00292166
:00000001FF
;PIC16F628A
;CRC=EA24  CREATED="04-Oct.-15 20:43"
